:020000040000FA
:0400000000001C28B8
:040004000034003490
:080008009E00030E9F000B1D7A
:1000100017280B11F830810015148D0B1728643048
:100020008D0018148E0B17280A308E00D9201F0E51
:1000300083009E0E1E0E09000301850186018316B2
:1000400005148514051585150610861006118611F0
:10005000061286120613861381128111011581146E
:1000600001148B178B16831200308C000030970020
:1000700064308D000A308E0000309900F830810025
:1000800000308F0000309000083091000530920061
:10009000003093000030940000309B0000309A0044
:1000A00000309D0000309C008519572854280F0807
:1000B00097007C20100897007C20A521110897004C
:1000C0007C20120897007C20A521130897007C2033
:1000D000140897007C2010309600F921960B6D28AB
:1000E0000F187428AF217628D42176280030860096
:1000F000181C5428A4205428970A970B81280821FB
:100100000800970B852818210800970B89282521BE
:100110000800970B8D2835210800970B9128452161
:100120000800970B952855210800970B9928652101
:100130000800970B9D2875210800970BA1288521A1
:1001400008009521080008000518AB288518B2287A
:1001500098101810080085180000AE281918C52836
:10016000E72008001918B628F52008009B0A9B1DF7
:1001700008009B1C080000309B009A0A1A1D08000A
:100180009A1C080000309A0008009C1CCF289D0A89
:100190001D1D080000309D0000309C0008009D0AD5
:1001A0009D1D08009D1C08009C0A00309D00080051
:1001B00008008F0A8F1D08008F1C080000308F0078
:1001C000900A101D0800901C080000309000910A51
:1001D000911D0800911C080000309100920A121D28
:1001E0000800921C080000309200941CFF28930A1B
:1001F000131D080000309300003094000800930A9B
:10020000931D0800931C0800940A00309300080016
:10021000FE308600F92182308600F9218230860086
:10022000F921FE308600F92100308600F92108000E
:1002300002308600F921FE308600F9214230860026
:10024000F92100308600F921080062308600F9218A
:1002500092308600F9218A308600F92146308600E6
:10026000F92100308600F92108006C308600F92160
:1002700092308600F92192308600F92144308600C0
:10028000F92100308600F921080010308600F9219C
:10029000FE308600F92110308600F921F03086000A
:1002A000F92100308600F92108009E308600F921EE
:1002B00090308600F92192308600F921F2308600D4
:1002C000F92100308600F92108004C308600F92120
:1002D00092308600F92192308600F9217C30860028
:1002E000F92100308600F921080010308600F9213C
:1002F000FE308600F92190308600F921803086009A
:10030000F92100308600F9210800FE308600F9212D
:1003100092308600F92192308600F921FE30860065
:10032000F92100308600F9210800FE308600F9210D
:1003300090308600F92190308600F921F030860057
:10034000F92100308600F921080000308600F921EB
:1003500066308600F92100308600F92108008730D8
:100360008600F9215F308600F9213F308600F921AF
:1003700067308600F92167308600F9217F308600DA
:10038000F92167308600F92167308600F9213F3076
:100390008600F9215F308600F92187308600F92137
:1003A00000308600F921080086308600F9215E3091
:1003B0008600F9213E308600F92166308600F92159
:1003C00066308600F9217E308600F921663086008D
:1003D000F92166308600F9213E308600F9215E3031
:1003E0008600F92186308600F92100308600F92147
:0C03F00008001510151CFA291510080053
:02400E00F13F80
:00000001FF
